{"abi":[{"type":"constructor","inputs":[{"name":"name","type":"string","internalType":"string"},{"name":"version","type":"string","internalType":"string"}],"stateMutability":"nonpayable"},{"type":"function","name":"APPROVE_TYPEHASH","inputs":[],"outputs":[{"name":"","type":"bytes32","internalType":"bytes32"}],"stateMutability":"view"},{"type":"function","name":"DOMAIN_SEPARATOR","inputs":[],"outputs":[{"name":"","type":"bytes32","internalType":"bytes32"}],"stateMutability":"view"},{"type":"function","name":"approved","inputs":[{"name":"","type":"uint256","internalType":"uint256"},{"name":"","type":"address","internalType":"address"}],"outputs":[{"name":"","type":"bool","internalType":"bool"}],"stateMutability":"view"},{"type":"function","name":"createSplit","inputs":[{"name":"payer","type":"address","internalType":"address"},{"name":"token","type":"address","internalType":"address"},{"name":"items","type":"tuple[]","internalType":"struct SplitCoordinator.Leg[]","components":[{"name":"participant","type":"address","internalType":"address"},{"name":"amount","type":"uint256","internalType":"uint256"}]},{"name":"deadline","type":"uint64","internalType":"uint64"},{"name":"metaHash","type":"bytes32","internalType":"bytes32"}],"outputs":[{"name":"splitId","type":"uint256","internalType":"uint256"}],"stateMutability":"nonpayable"},{"type":"function","name":"legs","inputs":[{"name":"","type":"uint256","internalType":"uint256"},{"name":"","type":"uint256","internalType":"uint256"}],"outputs":[{"name":"participant","type":"address","internalType":"address"},{"name":"amount","type":"uint256","internalType":"uint256"}],"stateMutability":"view"},{"type":"function","name":"requiredAmount","inputs":[{"name":"splitId","type":"uint256","internalType":"uint256"},{"name":"participant","type":"address","internalType":"address"}],"outputs":[{"name":"","type":"uint256","internalType":"uint256"}],"stateMutability":"view"},{"type":"function","name":"settleSplit","inputs":[{"name":"splitId","type":"uint256","internalType":"uint256"},{"name":"participants","type":"address[]","internalType":"address[]"},{"name":"amounts","type":"uint256[]","internalType":"uint256[]"},{"name":"deadlines","type":"uint256[]","internalType":"uint256[]"},{"name":"salts","type":"bytes32[]","internalType":"bytes32[]"},{"name":"v","type":"uint8[]","internalType":"uint8[]"},{"name":"r","type":"bytes32[]","internalType":"bytes32[]"},{"name":"s","type":"bytes32[]","internalType":"bytes32[]"}],"outputs":[],"stateMutability":"nonpayable"},{"type":"function","name":"splits","inputs":[{"name":"","type":"uint256","internalType":"uint256"}],"outputs":[{"name":"payer","type":"address","internalType":"address"},{"name":"token","type":"address","internalType":"address"},{"name":"totalAmount","type":"uint256","internalType":"uint256"},{"name":"createdAt","type":"uint64","internalType":"uint64"},{"name":"deadline","type":"uint64","internalType":"uint64"},{"name":"metaHash","type":"bytes32","internalType":"bytes32"},{"name":"settled","type":"bool","internalType":"bool"}],"stateMutability":"view"},{"type":"function","name":"splitsCount","inputs":[],"outputs":[{"name":"","type":"uint256","internalType":"uint256"}],"stateMutability":"view"},{"type":"function","name":"verifyApprovalSig","inputs":[{"name":"splitId","type":"uint256","internalType":"uint256"},{"name":"participant","type":"address","internalType":"address"},{"name":"amount","type":"uint256","internalType":"uint256"},{"name":"deadline","type":"uint256","internalType":"uint256"},{"name":"salt","type":"bytes32","internalType":"bytes32"},{"name":"v","type":"uint8","internalType":"uint8"},{"name":"r","type":"bytes32","internalType":"bytes32"},{"name":"s","type":"bytes32","internalType":"bytes32"}],"outputs":[{"name":"","type":"bool","internalType":"bool"}],"stateMutability":"view"},{"type":"event","name":"SplitApproved","inputs":[{"name":"splitId","type":"uint256","indexed":true,"internalType":"uint256"},{"name":"participant","type":"address","indexed":true,"internalType":"address"},{"name":"amount","type":"uint256","indexed":false,"internalType":"uint256"}],"anonymous":false},{"type":"event","name":"SplitCreated","inputs":[{"name":"splitId","type":"uint256","indexed":true,"internalType":"uint256"},{"name":"payer","type":"address","indexed":true,"internalType":"address"},{"name":"token","type":"address","indexed":true,"internalType":"address"},{"name":"total","type":"uint256","indexed":false,"internalType":"uint256"},{"name":"deadline","type":"uint64","indexed":false,"internalType":"uint64"},{"name":"metaHash","type":"bytes32","indexed":false,"internalType":"bytes32"}],"anonymous":false},{"type":"event","name":"SplitSettled","inputs":[{"name":"splitId","type":"uint256","indexed":true,"internalType":"uint256"},{"name":"payer","type":"address","indexed":true,"internalType":"address"}],"anonymous":false},{"type":"error","name":"ReentrancyGuardReentrantCall","inputs":[]}],"bytecode":{"object":"0x60808060405234620001045762001374803803809162000020828562000109565b83398101604082820312620001045781516001600160401b039290838111620001045782620000519183016200012d565b91602082015184811162000104576200006b92016200012d565b9060016000556020815191012090602081519101206040519060208201927f8b73c3c69bb8fe3d512ecc4cf759cc79239f7b179b0ffacaa9a75d522b39400f8452604083015260608201524660808201523060a082015260a0815260c081019281841090841117620000ee57826040525190206001556111d09081620001a48239f35b634e487b7160e01b600052604160045260246000fd5b600080fd5b601f909101601f19168101906001600160401b03821190821017620000ee57604052565b919080601f84011215620001045782516001600160401b038111620000ee57602090604051926200016883601f19601f850116018562000109565b818452828287010111620001045760005b8181106200018f57508260009394955001015290565b85810183015184820184015282016200017956fe60c0604052600436101561001257600080fd5b60003560e01c80631108b0a314610e0f5780633644e51514610df15780634a4f6cd614610d9c5780638253951a14610d4f578063884c300614610cc8578063a313047014610c74578063a80225131461057d578063c9f10f8c14610542578063d4402bda146100ad5763ebd6e21e1461008a57600080fd5b346100a85760003660031901126100a8576020600254604051908152f35b600080fd5b346100a85760a03660031901126100a8576004356001600160a01b03811681036100a8576100d9610e35565b604491604435916001600160401b0383116100a857366023840112156100a8576001600160401b038360040135116100a857366024846004013560061b850101116100a857606490606435946001600160401b03861686036100a8576001600160a01b038416151580610530575b156104fc578460040135156104cd57916000926000915b8660040135831061041b57505050600254936000198514610405576001850160025560405161018c81610ead565b60018060a01b038516815260018060a01b038316602082015260056040820191858352606081016001600160401b034216815260808201906001600160401b038b16825260a0830191608435835260c08401956000875260018c01600052600360205260406000209460018060a01b038151166bffffffffffffffffffffffff60a01b8754161786556001860190602060018060a01b03910151166bffffffffffffffffffffffff60a01b8254161790555160028501556001600160401b03600385019251166fffffffffffffffff00000000000000008354925160401b16916fffffffffffffffffffffffffffffffff191617179055516004820155019051151560ff8019835416911617905560005b8160040135811061030e5750506001600160401b036020956040519384521685830152608435604083015260018060a01b03169160018060a01b0316907fa86881114b1b067ddc53d17ce233a788ab87a2ff7ddd82816a8a0bca9afb287d60606001860192a4600160405191018152f35b60018601600052600460205260406000209061033a6103358285600401356024870161112c565b611118565b602061034e8386600401356024880161112c565b013592604051918260408101106001600160401b036040850111176103ef57604083810190526001600160a01b03168252602082019384528054680100000000000000008110156103ef576103a891600182018155610e4b565b9190916103d9575181546001600160a01b0319166001600160a01b039190911617815591516001928301550161029d565b634e487b7160e01b600052600060045260246000fd5b634e487b7160e01b600052604160045260246000fd5b634e487b7160e01b600052601160045260246000fd5b90919361043361033586896004013560248b0161112c565b602080610448888b6004013560248d0161112c565b0135916001600160a01b0316156104a0578115610474575081018091116104055793600101919061015e565b8390661b1959c8185b5d60ca1b866040519262461bcd60e51b8452600484015260076024840152820152fd5b8390673632b39030b2323960c11b866040519262461bcd60e51b8452600484015260086024840152820152fd5b60405162461bcd60e51b81526020600482015260076024820152666e6f206c65677360c81b6044820152606490fd5b60405162461bcd60e51b815260206004820152600c60248201526b34b73b30b634b21030b2323960a11b6044820152606490fd5b506001600160a01b0382161515610147565b346100a85760003660031901126100a85760206040517f2198e0131696a697f05a04ffc99a975fd261f8f11ce7c1a87e7bf7480f0eb43e8152f35b346100a8576101003660031901126100a8576024356001600160401b0381116100a8576105ae903690600401610e7d565b906044356001600160401b0381116100a8576105ce903690600401610e7d565b60805260a0526064356001600160401b0381116100a8576105f3903690600401610e7d565b926084356001600160401b0381116100a857610613903690600401610e7d565b92909460a4356001600160401b0381116100a857610635903690600401610e7d565b9260c4356001600160401b0381116100a857610655903690600401610e7d565b98906001600160401b0360e435116100a8576106763660e435600401610e7d565b949092600260005414610c625760059b6002600055600435600052600360205260ff60406000209d8e6106b360018060a01b038254161515610ee9565b015416610c2b576001600160401b0360038e015460401c1680610bea575b506080518a1480610be1575b80610bd8575b80610bcf575b80610bc6575b80610bbd575b15610b835760005b8a8d818310610acb5750505060018d01546001600160a01b03169a60005b8d8c80831061087c579092508f93508d915060005b8181106107805760058501805460ff1916600117905584546001600160a01b03166004357f70a3d28149dea0bd588aa5020046270051cc11ae9839823566fc7f45291e5d44600080a36001600055005b61078e610335828487611108565b60018060a01b038654166107a78360805160a051611108565b6040516323b872dd60e01b81526001600160a01b03909316600484015260248301919091523560448201526020816064816000885af190811561087057600091610835575b50156107fa57600101610730565b60405162461bcd60e51b81526020600482015260136024820152721d1c985b9cd9995c919c9bdb4819985a5b1959606a1b6044820152606490fd5b90506020813d602011610868575b8161085060209383610ec8565b810103126100a8575180151581036100a857866107ec565b3d9150610843565b6040513d6000823e3d90fd5b826103359161088a93611108565b906004356000526005602052604060002060018060a01b03831660005260205260ff60406000205416610a93578b8b6108d4836108cc8160805160a051611108565b35928d611108565b356108ec846108e481898c611108565b35948b611108565b3560ff811681036100a857610921938c928f87610916918f828e61090f92611108565b3596611108565b359488600435610f25565b15610a6457604460208f60405192838092636eb1769f60e11b825260018060a01b03881660048301523060248301525afa90811561087057600091610a32575b506109718260805160a051611108565b35116109f45760019160043560005260056020526040600020838060a01b03821660005260205260406000208360ff198254161790556109b68260805160a051611108565b3590604051918252838060a01b0316907f57bbceb528eee72300a312de2c56292ad1cc0e58decdcd7ae4cc39010e2a75d1602060043592a30161071b565b60405162461bcd60e51b8152602060048201526016602482015275696e73756666696369656e7420616c6c6f77616e636560501b6044820152606490fd5b90506020813d602011610a5c575b81610a4d60209383610ec8565b810103126100a8575138610961565b3d9150610a40565b60405162461bcd60e51b81526020600482015260076024820152666261642073696760c81b6044820152606490fd5b60405162461bcd60e51b815260206004820152601060248201526f185b1c9958591e48185c1c1c9bdd995960821b6044820152606490fd5b61033583610ae493610adc93611108565b60043561113c565b8015610b3e57610af98260805160a051611108565b3503610b07576001016106fd565b60405162461bcd60e51b815260206004820152600f60248201526e0c2dadeeadce840dad2e6dac2e8c6d608b1b6044820152606490fd5b60405162461bcd60e51b815260206004820152601860248201527f7061727469636970616e74206e6f7420696e2073706c697400000000000000006044820152606490fd5b60405162461bcd60e51b81526020600482015260126024820152710c2e4e4c2f240d8cadc40dad2e6dac2e8c6d60731b6044820152606490fd5b50868a146106f5565b50808a146106ef565b50888a146106e9565b508a8a146106e3565b50878a146106dd565b4211610bf6578d6106d1565b60405162461bcd60e51b815260206004820152600d60248201526c1cdc1b1a5d08195e1c1a5c9959609a1b6044820152606490fd5b60405162461bcd60e51b815260206004820152600f60248201526e185b1c9958591e481cd95d1d1b1959608a1b6044820152606490fd5b604051633ee5aeb560e01b8152600490fd5b346100a85760403660031901126100a8576024356004356000526004602052604060002080548210156100a857604091610cad91610e4b565b506001808060a01b0382541691015482519182526020820152f35b346100a85760203660031901126100a857600435600052600360205260e0604060002060018060a01b0390818154169160018201541690600281015460038201546001600160401b039160ff60056004860154950154169460405196875260208701526040860152818116606086015260401c16608084015260a0830152151560c0820152f35b346100a85760403660031901126100a857610d68610e35565b600435600052600560205260406000209060018060a01b0316600052602052602060ff604060002054166040519015158152f35b346100a8576101003660031901126100a857610db6610e35565b60a4359060ff821682036100a857602091610de79160e4359160c43591608435906064359060443590600435610f25565b6040519015158152f35b346100a85760003660031901126100a8576020600154604051908152f35b346100a85760403660031901126100a8576020610e2d610adc610e35565b604051908152f35b602435906001600160a01b03821682036100a857565b8054821015610e675760005260206000209060011b0190600090565b634e487b7160e01b600052603260045260246000fd5b9181601f840112156100a8578235916001600160401b0383116100a8576020808501948460051b0101116100a857565b60e081019081106001600160401b038211176103ef57604052565b90601f801991011681019081106001600160401b038211176103ef57604052565b15610ef057565b60405162461bcd60e51b815260206004820152600d60248201526c73706c6974202165786973747360981b6044820152606490fd5b92969194939096836000526003602052604060002095604051610f4781610ead565b610fb360018060a01b0389541680835260ff600560018060a01b0360018d0154169b602086019c8d52600281015460408701526001600160401b036003820154818116606089015260401c166080870152600481015460a0870152015416151560c08401521515610ee9565b826110c8575b60015497519051604080517f2198e0131696a697f05a04ffc99a975fd261f8f11ce7c1a87e7bf7480f0eb43e60208201526001600160a01b038d811692820192909252606081019890985291821660808801521660a086015260c085015260e08401526101008084019190915282526101208201936001600160401b038511838610176103ef57846040528251602084012061014084019161190160f01b8352610142850152610162840152604285526101a08301928584106001600160401b038511176103ef5760209660ff60809661020094600099886040525190208752166101c08301526101e0820152015282805260015afa15610870576000516001600160a01b0390811691161490565b82421115610fb95760405162461bcd60e51b815260206004820152601060248201526f185c1c1c9bdd985b08195e1c1a5c995960821b6044820152606490fd5b9190811015610e675760051b0190565b356001600160a01b03811681036100a85790565b9190811015610e675760061b0190565b6000526004602052604060002080549160005b83811061115f5750505050600090565b6111698184610e4b565b50546001600160a01b038381169116146111855760010161114f565b90506001925061119491610e4b565b5001549056fea26469706673582212204350dba517676d7655e7ca9c2121ac734b8f46ffb4c9245e398bb7ef11195acc64736f6c63430008180033","linkReferences":{}},"methodIdentifiers":{"APPROVE_TYPEHASH()":"c9f10f8c","DOMAIN_SEPARATOR()":"3644e515","approved(uint256,address)":"8253951a","createSplit(address,address,(address,uint256)[],uint64,bytes32)":"d4402bda","legs(uint256,uint256)":"a3130470","requiredAmount(uint256,address)":"1108b0a3","settleSplit(uint256,address[],uint256[],uint256[],bytes32[],uint8[],bytes32[],bytes32[])":"a8022513","splits(uint256)":"884c3006","splitsCount()":"ebd6e21e","verifyApprovalSig(uint256,address,uint256,uint256,bytes32,uint8,bytes32,bytes32)":"4a4f6cd6"},"id":18}